:020000020000FC
:1000000001E0A2E2B2E00D9303950F3FE1F70D93FB
:1000100003950D32E1F7A2E2B2E0C0E0D4E0E0E007
:10002000F6E000E050E04D91540F403081F0413057
:1000300071F0423061F0433051F0443041F04530CE
:1000400019F045500C94150059930C9428005193C5
:10005000403011F00C942D000395023011F00C94F7
:100060001200C0E0D4E0E0E0F6E050E000E010E094
:1000700020E030E070E049916191403029F4603037
:1000800019F47395723031F0040F151F260F351FC8
:080090000C943B000C944A00A3
:00000001FF
